{
  "_format": "hh-sol-artifact-1",
  "contractName": "MockERC721",
  "sourceName": "contracts/mocks/MockERC721.sol",
  "abi": [
    {
      "inputs": [
        {
          "internalType": "address",
          "name": "to",
          "type": "address"
        },
        {
          "internalType": "uint256",
          "name": "tokenId",
          "type": "uint256"
        }
      ],
      "name": "approve",
      "outputs": [],
      "stateMutability": "nonpayable",
      "type": "function"
    },
    {
      "inputs": [
        {
          "internalType": "string",
          "name": "baseURI",
          "type": "string"
        },
        {
          "internalType": "uint256",
          "name": "maxTokenCount",
          "type": "uint256"
        }
      ],
      "stateMutability": "nonpayable",
      "type": "constructor"
    },
    {
      "inputs": [],
      "name": "ERC721EnumerableForbiddenBatchMint",
      "type": "error"
    },
    {
      "inputs": [
        {
          "internalType": "address",
          "name": "sender",
          "type": "address"
        },
        {
          "internalType": "uint256",
          "name": "tokenId",
          "type": "uint256"
        },
        {
          "internalType": "address",
          "name": "owner",
          "type": "address"
        }
      ],
      "name": "ERC721IncorrectOwner",
      "type": "error"
    },
    {
      "inputs": [
        {
          "internalType": "address",
          "name": "operator",
          "type": "address"
        },
        {
          "internalType": "uint256",
          "name": "tokenId",
          "type": "uint256"
        }
      ],
      "name": "ERC721InsufficientApproval",
      "type": "error"
    },
    {
      "inputs": [
        {
          "internalType": "address",
          "name": "approver",
          "type": "address"
        }
      ],
      "name": "ERC721InvalidApprover",
      "type": "error"
    },
    {
      "inputs": [
        {
          "internalType": "address",
          "name": "operator",
          "type": "address"
        }
      ],
      "name": "ERC721InvalidOperator",
      "type": "error"
    },
    {
      "inputs": [
        {
          "internalType": "address",
          "name": "owner",
          "type": "address"
        }
      ],
      "name": "ERC721InvalidOwner",
      "type": "error"
    },
    {
      "inputs": [
        {
          "internalType": "address",
          "name": "receiver",
          "type": "address"
        }
      ],
      "name": "ERC721InvalidReceiver",
      "type": "error"
    },
    {
      "inputs": [
        {
          "internalType": "address",
          "name": "sender",
          "type": "address"
        }
      ],
      "name": "ERC721InvalidSender",
      "type": "error"
    },
    {
      "inputs": [
        {
          "internalType": "uint256",
          "name": "tokenId",
          "type": "uint256"
        }
      ],
      "name": "ERC721NonexistentToken",
      "type": "error"
    },
    {
      "inputs": [
        {
          "internalType": "address",
          "name": "owner",
          "type": "address"
        },
        {
          "internalType": "uint256",
          "name": "index",
          "type": "uint256"
        }
      ],
      "name": "ERC721OutOfBoundsIndex",
      "type": "error"
    },
    {
      "inputs": [],
      "name": "mint",
      "outputs": [],
      "stateMutability": "payable",
      "type": "function"
    },
    {
      "inputs": [
        {
          "internalType": "address",
          "name": "owner",
          "type": "address"
        }
      ],
      "name": "OwnableInvalidOwner",
      "type": "error"
    },
    {
      "inputs": [
        {
          "internalType": "address",
          "name": "account",
          "type": "address"
        }
      ],
      "name": "OwnableUnauthorizedAccount",
      "type": "error"
    },
    {
      "anonymous": false,
      "inputs": [
        {
          "indexed": true,
          "internalType": "address",
          "name": "owner",
          "type": "address"
        },
        {
          "indexed": true,
          "internalType": "address",
          "name": "approved",
          "type": "address"
        },
        {
          "indexed": true,
          "internalType": "uint256",
          "name": "tokenId",
          "type": "uint256"
        }
      ],
      "name": "Approval",
      "type": "event"
    },
    {
      "anonymous": false,
      "inputs": [
        {
          "indexed": true,
          "internalType": "address",
          "name": "owner",
          "type": "address"
        },
        {
          "indexed": true,
          "internalType": "address",
          "name": "operator",
          "type": "address"
        },
        {
          "indexed": false,
          "internalType": "bool",
          "name": "approved",
          "type": "bool"
        }
      ],
      "name": "ApprovalForAll",
      "type": "event"
    },
    {
      "anonymous": false,
      "inputs": [
        {
          "indexed": true,
          "internalType": "address",
          "name": "previousOwner",
          "type": "address"
        },
        {
          "indexed": true,
          "internalType": "address",
          "name": "newOwner",
          "type": "address"
        }
      ],
      "name": "OwnershipTransferred",
      "type": "event"
    },
    {
      "inputs": [],
      "name": "renounceOwnership",
      "outputs": [],
      "stateMutability": "nonpayable",
      "type": "function"
    },
    {
      "inputs": [
        {
          "internalType": "address",
          "name": "from",
          "type": "address"
        },
        {
          "internalType": "address",
          "name": "to",
          "type": "address"
        },
        {
          "internalType": "uint256",
          "name": "tokenId",
          "type": "uint256"
        }
      ],
      "name": "safeTransferFrom",
      "outputs": [],
      "stateMutability": "nonpayable",
      "type": "function"
    },
    {
      "inputs": [
        {
          "internalType": "address",
          "name": "from",
          "type": "address"
        },
        {
          "internalType": "address",
          "name": "to",
          "type": "address"
        },
        {
          "internalType": "uint256",
          "name": "tokenId",
          "type": "uint256"
        },
        {
          "internalType": "bytes",
          "name": "data",
          "type": "bytes"
        }
      ],
      "name": "safeTransferFrom",
      "outputs": [],
      "stateMutability": "nonpayable",
      "type": "function"
    },
    {
      "inputs": [
        {
          "internalType": "address",
          "name": "operator",
          "type": "address"
        },
        {
          "internalType": "bool",
          "name": "approved",
          "type": "bool"
        }
      ],
      "name": "setApprovalForAll",
      "outputs": [],
      "stateMutability": "nonpayable",
      "type": "function"
    },
    {
      "inputs": [
        {
          "internalType": "bool",
          "name": "val",
          "type": "bool"
        }
      ],
      "name": "setPaused",
      "outputs": [],
      "stateMutability": "nonpayable",
      "type": "function"
    },
    {
      "anonymous": false,
      "inputs": [
        {
          "indexed": true,
          "internalType": "address",
          "name": "from",
          "type": "address"
        },
        {
          "indexed": true,
          "internalType": "address",
          "name": "to",
          "type": "address"
        },
        {
          "indexed": true,
          "internalType": "uint256",
          "name": "tokenId",
          "type": "uint256"
        }
      ],
      "name": "Transfer",
      "type": "event"
    },
    {
      "inputs": [
        {
          "internalType": "address",
          "name": "from",
          "type": "address"
        },
        {
          "internalType": "address",
          "name": "to",
          "type": "address"
        },
        {
          "internalType": "uint256",
          "name": "tokenId",
          "type": "uint256"
        }
      ],
      "name": "transferFrom",
      "outputs": [],
      "stateMutability": "nonpayable",
      "type": "function"
    },
    {
      "inputs": [
        {
          "internalType": "address",
          "name": "newOwner",
          "type": "address"
        }
      ],
      "name": "transferOwnership",
      "outputs": [],
      "stateMutability": "nonpayable",
      "type": "function"
    },
    {
      "stateMutability": "payable",
      "type": "fallback"
    },
    {
      "stateMutability": "payable",
      "type": "receive"
    },
    {
      "inputs": [],
      "name": "_paused",
      "outputs": [
        {
          "internalType": "bool",
          "name": "",
          "type": "bool"
        }
      ],
      "stateMutability": "view",
      "type": "function"
    },
    {
      "inputs": [
        {
          "internalType": "address",
          "name": "owner",
          "type": "address"
        }
      ],
      "name": "balanceOf",
      "outputs": [
        {
          "internalType": "uint256",
          "name": "",
          "type": "uint256"
        }
      ],
      "stateMutability": "view",
      "type": "function"
    },
    {
      "inputs": [
        {
          "internalType": "uint256",
          "name": "tokenId",
          "type": "uint256"
        }
      ],
      "name": "getApproved",
      "outputs": [
        {
          "internalType": "address",
          "name": "",
          "type": "address"
        }
      ],
      "stateMutability": "view",
      "type": "function"
    },
    {
      "inputs": [
        {
          "internalType": "address",
          "name": "owner",
          "type": "address"
        },
        {
          "internalType": "address",
          "name": "operator",
          "type": "address"
        }
      ],
      "name": "isApprovedForAll",
      "outputs": [
        {
          "internalType": "bool",
          "name": "",
          "type": "bool"
        }
      ],
      "stateMutability": "view",
      "type": "function"
    },
    {
      "inputs": [
        {
          "internalType": "address",
          "name": "",
          "type": "address"
        }
      ],
      "name": "isMinted",
      "outputs": [
        {
          "internalType": "bool",
          "name": "",
          "type": "bool"
        }
      ],
      "stateMutability": "view",
      "type": "function"
    },
    {
      "inputs": [],
      "name": "maxTokenIds",
      "outputs": [
        {
          "internalType": "uint256",
          "name": "",
          "type": "uint256"
        }
      ],
      "stateMutability": "view",
      "type": "function"
    },
    {
      "inputs": [],
      "name": "name",
      "outputs": [
        {
          "internalType": "string",
          "name": "",
          "type": "string"
        }
      ],
      "stateMutability": "view",
      "type": "function"
    },
    {
      "inputs": [],
      "name": "owner",
      "outputs": [
        {
          "internalType": "address",
          "name": "",
          "type": "address"
        }
      ],
      "stateMutability": "view",
      "type": "function"
    },
    {
      "inputs": [
        {
          "internalType": "uint256",
          "name": "tokenId",
          "type": "uint256"
        }
      ],
      "name": "ownerOf",
      "outputs": [
        {
          "internalType": "address",
          "name": "",
          "type": "address"
        }
      ],
      "stateMutability": "view",
      "type": "function"
    },
    {
      "inputs": [
        {
          "internalType": "bytes4",
          "name": "interfaceId",
          "type": "bytes4"
        }
      ],
      "name": "supportsInterface",
      "outputs": [
        {
          "internalType": "bool",
          "name": "",
          "type": "bool"
        }
      ],
      "stateMutability": "view",
      "type": "function"
    },
    {
      "inputs": [],
      "name": "symbol",
      "outputs": [
        {
          "internalType": "string",
          "name": "",
          "type": "string"
        }
      ],
      "stateMutability": "view",
      "type": "function"
    },
    {
      "inputs": [
        {
          "internalType": "uint256",
          "name": "index",
          "type": "uint256"
        }
      ],
      "name": "tokenByIndex",
      "outputs": [
        {
          "internalType": "uint256",
          "name": "",
          "type": "uint256"
        }
      ],
      "stateMutability": "view",
      "type": "function"
    },
    {
      "inputs": [],
      "name": "tokenIds",
      "outputs": [
        {
          "internalType": "uint256",
          "name": "",
          "type": "uint256"
        }
      ],
      "stateMutability": "view",
      "type": "function"
    },
    {
      "inputs": [
        {
          "internalType": "address",
          "name": "owner",
          "type": "address"
        },
        {
          "internalType": "uint256",
          "name": "index",
          "type": "uint256"
        }
      ],
      "name": "tokenOfOwnerByIndex",
      "outputs": [
        {
          "internalType": "uint256",
          "name": "",
          "type": "uint256"
        }
      ],
      "stateMutability": "view",
      "type": "function"
    },
    {
      "inputs": [
        {
          "internalType": "uint256",
          "name": "tokenId",
          "type": "uint256"
        }
      ],
      "name": "tokenURI",
      "outputs": [
        {
          "internalType": "string",
          "name": "",
          "type": "string"
        }
      ],
      "stateMutability": "view",
      "type": "function"
    },
    {
      "inputs": [],
      "name": "totalSupply",
      "outputs": [
        {
          "internalType": "uint256",
          "name": "",
          "type": "uint256"
        }
      ],
      "stateMutability": "view",
      "type": "function"
    }
  ],
  "bytecode": "0x608060405260006008553480156200001657600080fd5b506040518060400160405280600781526020016626bcaa37b5b2b760c91b815250604051806040016040528060038152602001624d544b60e81b815250816000908162000064919062000193565b50600162000073828262000193565b505050620000906200008a6200009660201b60201c565b6200009a565b6200025f565b3390565b600780546001600160a01b038381166001600160a01b0319831681179093556040519116919082907f8be0079c531659141344cd1fd0a4f28419497f9722a3daafe3b4186f6b6457e090600090a35050565b634e487b7160e01b600052604160045260246000fd5b600181811c908216806200011757607f821691505b6020821081036200013857634e487b7160e01b600052602260045260246000fd5b50919050565b601f8211156200018e576000816000526020600020601f850160051c81016020861015620001695750805b601f850160051c820191505b818110156200018a5782815560010162000175565b5050505b505050565b81516001600160401b03811115620001af57620001af620000ec565b620001c781620001c0845462000102565b846200013e565b602080601f831160018114620001ff5760008415620001e65750858301515b600019600386901b1c1916600185901b1785556200018a565b600085815260208120601f198616915b8281101562000230578886015182559484019460019091019084016200020f565b50858210156200024f5787850151600019600388901b60f8161c191681555b5050505050600190811b01905550565b611caf806200026f6000396000f3fe608060405234801561001057600080fd5b50600436106101515760003560e01c806370a08231116100cd578063b88d4fde11610081578063d204c45e11610066578063d204c45e146102a3578063e985e9c5146102b6578063f2fde38b146102f257600080fd5b8063b88d4fde1461027d578063c87b56dd1461029057600080fd5b80638da5cb5b116100b25780638da5cb5b1461025157806395d89b4114610262578063a22cb4651461026a57600080fd5b806370a0823114610236578063715018a61461024957600080fd5b806317d70f7c1161012457806342842e0e1161010957806342842e0e146101fd57806342966c68146102105780636352211e1461022357600080fd5b806317d70f7c146101d357806323b872dd146101ea57600080fd5b806301ffc9a71461015657806306fdde031461017e578063081812fc14610193578063095ea7b3146101be575b600080fd5b610169610164366004611771565b610305565b60405190151581526020015b60405180910390f35b610186610316565b60405161017591906117de565b6101a66101a13660046117f1565b6103a8565b6040516001600160a01b039091168152602001610175565b6101d16101cc366004611826565b6103cf565b005b6101dc60085481565b604051908152602001610175565b6101d16101f8366004611850565b610505565b6101d161020b366004611850565b61057d565b6101d161021e3660046117f1565b610598565b6101a66102313660046117f1565b61060f565b6101dc61024436600461188c565b610674565b6101d161070e565b6007546001600160a01b03166101a6565b610186610722565b6101d16102783660046118a7565b610731565b6101d161028b36600461196f565b610740565b61018661029e3660046117f1565b6107be565b6101d16102b13660046119eb565b6107c9565b6101696102c4366004611a4d565b6001600160a01b03918216600090815260056020908152604080832093909416825291909152205460ff1690565b6101d161030036600461188c565b610847565b6000610310826108d4565b92915050565b60606000805461032590611a80565b80601f016020809104026020016040519081016040528092919081815260200182805461035190611a80565b801561039e5780601f106103735761010080835404028352916020019161039e565b820191906000526020600020905b81548152906001019060200180831161038157829003601f168201915b5050505050905090565b60006103b382610912565b506000908152600460205260409020546001600160a01b031690565b60006103da8261060f565b9050806001600160a01b0316836001600160a01b0316036104685760405162461bcd60e51b815260206004820152602160248201527f4552433732313a20617070726f76616c20746f2063757272656e74206f776e6560448201527f720000000000000000000000000000000000000000000000000000000000000060648201526084015b60405180910390fd5b336001600160a01b0382161480610484575061048481336102c4565b6104f65760405162461bcd60e51b815260206004820152603d60248201527f4552433732313a20617070726f76652063616c6c6572206973206e6f7420746f60448201527f6b656e206f776e6572206f7220617070726f76656420666f7220616c6c000000606482015260840161045f565b6105008383610976565b505050565b610510335b826109e4565b6105725760405162461bcd60e51b815260206004820152602d60248201527f4552433732313a2063616c6c6572206973206e6f7420746f6b656e206f776e6560448201526c1c881bdc88185c1c1c9bdd9959609a1b606482015260840161045f565b610500838383610a63565b61050083838360405180602001604052806000815250610740565b6105a13361050a565b6106035760405162461bcd60e51b815260206004820152602d60248201527f4552433732313a2063616c6c6572206973206e6f7420746f6b656e206f776e6560448201526c1c881bdc88185c1c1c9bdd9959609a1b606482015260840161045f565b61060c81610c5c565b50565b6000818152600260205260408120546001600160a01b0316806103105760405162461bcd60e51b815260206004820152601860248201527f4552433732313a20696e76616c696420746f6b656e2049440000000000000000604482015260640161045f565b60006001600160a01b0382166106f25760405162461bcd60e51b815260206004820152602960248201527f4552433732313a2061646472657373207a65726f206973206e6f74206120766160448201527f6c6964206f776e65720000000000000000000000000000000000000000000000606482015260840161045f565b506001600160a01b031660009081526003602052604090205490565b610716610c65565b6107206000610cbf565b565b60606001805461032590611a80565b61073c338383610d11565b5050565b61074a33836109e4565b6107ac5760405162461bcd60e51b815260206004820152602d60248201527f4552433732313a2063616c6c6572206973206e6f7420746f6b656e206f776e6560448201526c1c881bdc88185c1c1c9bdd9959609a1b606482015260840161045f565b6107b884848484610ddf565b50505050565b606061031082610e5d565b6107d1610c65565b600880549060006107e183611aba565b91905055506107f282600854610f65565b6107fe60085482610f7f565b600854604080519182526001600160a01b03841660208301527f291d3f6c3ecab98acd02709c8abf1e57e33ba0c761ff7f68bcbe5af06b346fed91015b60405180910390a15050565b61084f610c65565b6001600160a01b0381166108cb5760405162461bcd60e51b815260206004820152602660248201527f4f776e61626c653a206e6577206f776e657220697320746865207a65726f206160448201527f6464726573730000000000000000000000000000000000000000000000000000606482015260840161045f565b61060c81610cbf565b60006001600160e01b031982167f49064906000000000000000000000000000000000000000000000000000000001480610310575061031082611052565b6000818152600260205260409020546001600160a01b031661060c5760405162461bcd60e51b815260206004820152601860248201527f4552433732313a20696e76616c696420746f6b656e2049440000000000000000604482015260640161045f565b600081815260046020526040902080546001600160a01b0319166001600160a01b03841690811790915581906109ab8261060f565b6001600160a01b03167f8c5be1e5ebec7d5bd14f71427d1e84f3dd0314c0f7b2291e5b200ac8c7c3b92560405160405180910390a45050565b6000806109f08361060f565b9050806001600160a01b0316846001600160a01b03161480610a3757506001600160a01b0380821660009081526005602090815260408083209388168352929052205460ff165b80610a5b5750836001600160a01b0316610a50846103a8565b6001600160a01b0316145b949350505050565b826001600160a01b0316610a768261060f565b6001600160a01b031614610ada5760405162461bcd60e51b815260206004820152602560248201527f4552433732313a207472616e736665722066726f6d20696e636f72726563742060448201526437bbb732b960d91b606482015260840161045f565b6001600160a01b038216610b555760405162461bcd60e51b8152602060048201526024808201527f4552433732313a207472616e7366657220746f20746865207a65726f2061646460448201527f7265737300000000000000000000000000000000000000000000000000000000606482015260840161045f565b826001600160a01b0316610b688261060f565b6001600160a01b031614610bcc5760405162461bcd60e51b815260206004820152602560248201527f4552433732313a207472616e736665722066726f6d20696e636f72726563742060448201526437bbb732b960d91b606482015260840161045f565b600081815260046020908152604080832080546001600160a01b03199081169091556001600160a01b0387811680865260038552838620805460001901905590871680865283862080546001019055868652600290945282852080549092168417909155905184937fddf252ad1be2c89b69c2b068fc378daa952ba7f163c4a11628f55a4df523b3ef91a4505050565b61060c816110ed565b6007546001600160a01b031633146107205760405162461bcd60e51b815260206004820181905260248201527f4f776e61626c653a2063616c6c6572206973206e6f7420746865206f776e6572604482015260640161045f565b600780546001600160a01b038381166001600160a01b0319831681179093556040519116919082907f8be0079c531659141344cd1fd0a4f28419497f9722a3daafe3b4186f6b6457e090600090a35050565b816001600160a01b0316836001600160a01b031603610d725760405162461bcd60e51b815260206004820152601960248201527f4552433732313a20617070726f766520746f2063616c6c657200000000000000604482015260640161045f565b6001600160a01b03838116600081815260056020908152604080832094871680845294825291829020805460ff191686151590811790915591519182527f17307eab39ab6107e8899845ad3d59bd9653f200f220920489ca2b5937696c31910160405180910390a3505050565b610dea848484610a63565b610df68484848461112d565b6107b85760405162461bcd60e51b815260206004820152603260248201527f4552433732313a207472616e7366657220746f206e6f6e20455243373231526560448201527131b2b4bb32b91034b6b83632b6b2b73a32b960711b606482015260840161045f565b6060610e6882610912565b60008281526006602052604081208054610e8190611a80565b80601f0160208091040260200160405190810160405280929190818152602001828054610ead90611a80565b8015610efa5780601f10610ecf57610100808354040283529160200191610efa565b820191906000526020600020905b815481529060010190602001808311610edd57829003601f168201915b505050505090506000610f1860408051602081019091526000815290565b90508051600003610f2a575092915050565b815115610f5c578082604051602001610f44929190611ae1565b60405160208183030381529060405292505050919050565b610a5b84611279565b61073c8282604051806020016040528060008152506112ed565b6000828152600260205260409020546001600160a01b03166110095760405162461bcd60e51b815260206004820152602e60248201527f45524337323155524953746f726167653a2055524920736574206f66206e6f6e60448201527f6578697374656e7420746f6b656e000000000000000000000000000000000000606482015260840161045f565b60008281526006602052604090206110218282611b60565b506040518281527ff8e1a15aba9398e019f0b49df1a4fde98ee17ae345cb5f6b5e2c27f5033e8ce79060200161083b565b60006001600160e01b031982167f80ac58cd0000000000000000000000000000000000000000000000000000000014806110b557506001600160e01b031982167f5b5e139f00000000000000000000000000000000000000000000000000000000145b8061031057507f01ffc9a7000000000000000000000000000000000000000000000000000000006001600160e01b0319831614610310565b6110f68161136b565b6000818152600660205260409020805461110f90611a80565b15905061060c57600081815260066020526040812061060c9161170d565b60006001600160a01b0384163b1561126e57604051630a85bd0160e11b81526001600160a01b0385169063150b7a0290611171903390899088908890600401611c20565b6020604051808303816000875af19250505080156111ac575060408051601f3d908101601f191682019092526111a991810190611c5c565b60015b611254573d8080156111da576040519150601f19603f3d011682016040523d82523d6000602084013e6111df565b606091505b50805160000361124c5760405162461bcd60e51b815260206004820152603260248201527f4552433732313a207472616e7366657220746f206e6f6e20455243373231526560448201527131b2b4bb32b91034b6b83632b6b2b73a32b960711b606482015260840161045f565b805181602001fd5b6001600160e01b031916630a85bd0160e11b149050610a5b565b506001949350505050565b606061128482610912565b600061129b60408051602081019091526000815290565b905060008151116112bb57604051806020016040528060008152506112e6565b806112c584611400565b6040516020016112d6929190611ae1565b6040516020818303038152906040525b9392505050565b6112f783836114a0565b611304600084848461112d565b6105005760405162461bcd60e51b815260206004820152603260248201527f4552433732313a207472616e7366657220746f206e6f6e20455243373231526560448201527131b2b4bb32b91034b6b83632b6b2b73a32b960711b606482015260840161045f565b60006113768261060f565b90506113818261060f565b600083815260046020908152604080832080546001600160a01b03199081169091556001600160a01b0385168085526003845282852080546000190190558785526002909352818420805490911690555192935084927fddf252ad1be2c89b69c2b068fc378daa952ba7f163c4a11628f55a4df523b3ef908390a45050565b6060600061140d8361162b565b600101905060008167ffffffffffffffff81111561142d5761142d6118e3565b6040519080825280601f01601f191660200182016040528015611457576020820181803683370190505b5090508181016020015b600019017f3031323334353637383961626364656600000000000000000000000000000000600a86061a8153600a850494508461146157509392505050565b6001600160a01b0382166114f65760405162461bcd60e51b815260206004820181905260248201527f4552433732313a206d696e7420746f20746865207a65726f2061646472657373604482015260640161045f565b6000818152600260205260409020546001600160a01b03161561155b5760405162461bcd60e51b815260206004820152601c60248201527f4552433732313a20746f6b656e20616c7265616479206d696e74656400000000604482015260640161045f565b6000818152600260205260409020546001600160a01b0316156115c05760405162461bcd60e51b815260206004820152601c60248201527f4552433732313a20746f6b656e20616c7265616479206d696e74656400000000604482015260640161045f565b6001600160a01b038216600081815260036020908152604080832080546001019055848352600290915280822080546001600160a01b0319168417905551839291907fddf252ad1be2c89b69c2b068fc378daa952ba7f163c4a11628f55a4df523b3ef908290a45050565b6000807a184f03e93ff9f4daa797ed6e38ed64bf6a1f0100000000000000008310611674577a184f03e93ff9f4daa797ed6e38ed64bf6a1f010000000000000000830492506040015b6d04ee2d6d415b85acef810000000083106116a0576d04ee2d6d415b85acef8100000000830492506020015b662386f26fc1000083106116be57662386f26fc10000830492506010015b6305f5e10083106116d6576305f5e100830492506008015b61271083106116ea57612710830492506004015b606483106116fc576064830492506002015b600a83106103105760010192915050565b50805461171990611a80565b6000825580601f10611729575050565b601f01602090049060005260206000209081019061060c91905b808211156117575760008155600101611743565b5090565b6001600160e01b03198116811461060c57600080fd5b60006020828403121561178357600080fd5b81356112e68161175b565b60005b838110156117a9578181015183820152602001611791565b50506000910152565b600081518084526117ca81602086016020860161178e565b601f01601f19169290920160200192915050565b6020815260006112e660208301846117b2565b60006020828403121561180357600080fd5b5035919050565b80356001600160a01b038116811461182157600080fd5b919050565b6000806040838503121561183957600080fd5b6118428361180a565b946020939093013593505050565b60008060006060848603121561186557600080fd5b61186e8461180a565b925061187c6020850161180a565b9150604084013590509250925092565b60006020828403121561189e57600080fd5b6112e68261180a565b600080604083850312156118ba57600080fd5b6118c38361180a565b9150602083013580151581146118d857600080fd5b809150509250929050565b634e487b7160e01b600052604160045260246000fd5b600067ffffffffffffffff80841115611914576119146118e3565b604051601f8501601f19908116603f0116810190828211818310171561193c5761193c6118e3565b8160405280935085815286868601111561195557600080fd5b858560208301376000602087830101525050509392505050565b6000806000806080858703121561198557600080fd5b61198e8561180a565b935061199c6020860161180a565b925060408501359150606085013567ffffffffffffffff8111156119bf57600080fd5b8501601f810187136119d057600080fd5b6119df878235602084016118f9565b91505092959194509250565b600080604083850312156119fe57600080fd5b611a078361180a565b9150602083013567ffffffffffffffff811115611a2357600080fd5b8301601f81018513611a3457600080fd5b611a43858235602084016118f9565b9150509250929050565b60008060408385031215611a6057600080fd5b611a698361180a565b9150611a776020840161180a565b90509250929050565b600181811c90821680611a9457607f821691505b602082108103611ab457634e487b7160e01b600052602260045260246000fd5b50919050565b600060018201611ada57634e487b7160e01b600052601160045260246000fd5b5060010190565b60008351611af381846020880161178e565b835190830190611b0781836020880161178e565b01949350505050565b601f821115610500576000816000526020600020601f850160051c81016020861015611b395750805b601f850160051c820191505b81811015611b5857828155600101611b45565b505050505050565b815167ffffffffffffffff811115611b7a57611b7a6118e3565b611b8e81611b888454611a80565b84611b10565b602080601f831160018114611bc35760008415611bab5750858301515b600019600386901b1c1916600185901b178555611b58565b600085815260208120601f198616915b82811015611bf257888601518255948401946001909101908401611bd3565b5085821015611c105787850151600019600388901b60f8161c191681555b5050505050600190811b01905550565b60006001600160a01b03808716835280861660208401525083604083015260806060830152611c5260808301846117b2565b9695505050505050565b600060208284031215611c6e57600080fd5b81516112e68161175b56fea264697066735822122065678018635efa4f15a1451005985586f8b931f9c9beb2cf4976cfbad5159feb64736f6c63430008180033",
  "linkReferences": {},
  "deployedLinkReferences": {}
}